{
  "_format": "hh-sol-artifact-1",
  "contractName": "Lock",
  "sourceName": "contracts/Lock.sol",
  "abi": [
    {
      "inputs": [
        {
          "internalType": "address",
          "name": "tokenAddress",
          "type": "address"
        }
      ],
      "stateMutability": "nonpayable",
      "type": "constructor"
    },
    {
      "inputs": [
        {
          "internalType": "address",
          "name": "",
          "type": "address"
        }
      ],
      "name": "deadline",
      "outputs": [
        {
          "internalType": "uint256",
          "name": "",
          "type": "uint256"
        }
      ],
      "stateMutability": "view",
      "type": "function"
    },
    {
      "inputs": [
        {
          "internalType": "uint256",
          "name": "amount",
          "type": "uint256"
        },
        {
          "internalType": "uint256",
          "name": "time",
          "type": "uint256"
        }
      ],
      "name": "lockTokens",
      "outputs": [],
      "stateMutability": "nonpayable",
      "type": "function"
    },
    {
      "inputs": [],
      "name": "lockerCount",
      "outputs": [
        {
          "internalType": "uint256",
          "name": "",
          "type": "uint256"
        }
      ],
      "stateMutability": "view",
      "type": "function"
    },
    {
      "inputs": [
        {
          "internalType": "address",
          "name": "",
          "type": "address"
        }
      ],
      "name": "lockers",
      "outputs": [
        {
          "internalType": "uint256",
          "name": "",
          "type": "uint256"
        }
      ],
      "stateMutability": "view",
      "type": "function"
    },
    {
      "inputs": [],
      "name": "totalLocked",
      "outputs": [
        {
          "internalType": "uint256",
          "name": "",
          "type": "uint256"
        }
      ],
      "stateMutability": "view",
      "type": "function"
    },
    {
      "inputs": [],
      "name": "withdrawTokens",
      "outputs": [],
      "stateMutability": "nonpayable",
      "type": "function"
    }
  ],
  "bytecode": "0x608060405234801561001057600080fd5b50604051610c9b380380610c9b8339818101604052810190610032919061008d565b806000806101000a81548173ffffffffffffffffffffffffffffffffffffffff021916908373ffffffffffffffffffffffffffffffffffffffff160217905550506100ff565b600081519050610087816100e8565b92915050565b60006020828403121561009f57600080fd5b60006100ad84828501610078565b91505092915050565b60006100c1826100c8565b9050919050565b600073ffffffffffffffffffffffffffffffffffffffff82169050919050565b6100f1816100b6565b81146100fc57600080fd5b50565b610b8d8061010e6000396000f3fe608060405234801561001057600080fd5b50600436106100625760003560e01c80632c8e7a21146100675780635403b3941461009757806356891412146100c757806389158d8e146100e55780638d8f2adb14610101578063ccd96eb61461010b575b600080fd5b610081600480360381019061007c91906106b6565b610129565b60405161008e91906108ce565b60405180910390f35b6100b160048036038101906100ac91906106b6565b610141565b6040516100be91906108ce565b60405180910390f35b6100cf610159565b6040516100dc91906108ce565b60405180910390f35b6100ff60048036038101906100fa9190610708565b61015f565b005b6101096103b9565b005b610113610671565b60405161012091906108ce565b60405180910390f35b60036020528060005260406000206000915090505481565b60046020528060005260406000206000915090505481565b60025481565b600082116101a2576040517f08c379a00000000000000000000000000000000000000000000000000000000081526004016101999061086e565b60405180910390fd5b6000600360003373ffffffffffffffffffffffffffffffffffffffff1673ffffffffffffffffffffffffffffffffffffffff168152602001908152602001600020541161020257600160008154809291906101fc906109f6565b91905055505b816002600082825461021491906108fa565b9250508190555081600360003373ffffffffffffffffffffffffffffffffffffffff1673ffffffffffffffffffffffffffffffffffffffff168152602001908152602001600020600082825461026a91906108fa565b92505081905550804261027d91906108fa565b600460003373ffffffffffffffffffffffffffffffffffffffff1673ffffffffffffffffffffffffffffffffffffffff1681526020019081526020016000208190555060008060009054906101000a900473ffffffffffffffffffffffffffffffffffffffff1673ffffffffffffffffffffffffffffffffffffffff166323b872dd3330866040518463ffffffff1660e01b8152600401610320939291906107ee565b602060405180830381600087803b15801561033a57600080fd5b505af115801561034e573d6000803e3d6000fd5b505050506040513d601f19601f8201168201806040525081019061037291906106df565b9050806103b4576040517f08c379a00000000000000000000000000000000000000000000000000000000081526004016103ab9061084e565b60405180910390fd5b505050565b6000600360003373ffffffffffffffffffffffffffffffffffffffff1673ffffffffffffffffffffffffffffffffffffffff168152602001908152602001600020541161043b576040517f08c379a00000000000000000000000000000000000000000000000000000000081526004016104329061088e565b60405180910390fd5b600460003373ffffffffffffffffffffffffffffffffffffffff1673ffffffffffffffffffffffffffffffffffffffff1681526020019081526020016000205442101561048757600080fd5b6000600360003373ffffffffffffffffffffffffffffffffffffffff1673ffffffffffffffffffffffffffffffffffffffff168152602001908152602001600020549050600360003373ffffffffffffffffffffffffffffffffffffffff1673ffffffffffffffffffffffffffffffffffffffff16815260200190815260200160002060009055600460003373ffffffffffffffffffffffffffffffffffffffff1673ffffffffffffffffffffffffffffffffffffffff1681526020019081526020016000206000905580600260008282546105639190610950565b925050819055506001600081548092919061057d906109cc565b919050555060008054906101000a900473ffffffffffffffffffffffffffffffffffffffff1673ffffffffffffffffffffffffffffffffffffffff1663a9059cbb33836040518363ffffffff1660e01b81526004016105dd929190610825565b602060405180830381600087803b1580156105f757600080fd5b505af115801561060b573d6000803e3d6000fd5b505050506040513d601f19601f8201168201806040525081019061062f91906106df565b61066e576040517f08c379a0000000000000000000000000000000000000000000000000000000008152600401610665906108ae565b60405180910390fd5b50565b60015481565b60008135905061068681610b12565b92915050565b60008151905061069b81610b29565b92915050565b6000813590506106b081610b40565b92915050565b6000602082840312156106c857600080fd5b60006106d684828501610677565b91505092915050565b6000602082840312156106f157600080fd5b60006106ff8482850161068c565b91505092915050565b6000806040838503121561071b57600080fd5b6000610729858286016106a1565b925050602061073a858286016106a1565b9150509250929050565b61074d81610984565b82525050565b6000610760600f836108e9565b915061076b82610a6e565b602082019050919050565b60006107836019836108e9565b915061078e82610a97565b602082019050919050565b60006107a66011836108e9565b91506107b182610ac0565b602082019050919050565b60006107c96010836108e9565b91506107d482610ae9565b602082019050919050565b6107e8816109c2565b82525050565b60006060820190506108036000830186610744565b6108106020830185610744565b61081d60408301846107df565b949350505050565b600060408201905061083a6000830185610744565b61084760208301846107df565b9392505050565b6000602082019050818103600083015261086781610753565b9050919050565b6000602082019050818103600083015261088781610776565b9050919050565b600060208201905081810360008301526108a781610799565b9050919050565b600060208201905081810360008301526108c7816107bc565b9050919050565b60006020820190506108e360008301846107df565b92915050565b600082825260208201905092915050565b6000610905826109c2565b9150610910836109c2565b9250827fffffffffffffffffffffffffffffffffffffffffffffffffffffffffffffffff0382111561094557610944610a3f565b5b828201905092915050565b600061095b826109c2565b9150610966836109c2565b92508282101561097957610978610a3f565b5b828203905092915050565b600061098f826109a2565b9050919050565b60008115159050919050565b600073ffffffffffffffffffffffffffffffffffffffff82169050919050565b6000819050919050565b60006109d7826109c2565b915060008214156109eb576109ea610a3f565b5b600182039050919050565b6000610a01826109c2565b91507fffffffffffffffffffffffffffffffffffffffffffffffffffffffffffffffff821415610a3457610a33610a3f565b5b600182019050919050565b7f4e487b7100000000000000000000000000000000000000000000000000000000600052601160045260246000fd5b7f5472616e73666572206661696c65640000000000000000000000000000000000600082015250565b7f546f6b656e20616d6f756e74206d757374206265203e20302e00000000000000600082015250565b7f4e6f7420656e6f75676820746f6b656e2e000000000000000000000000000000600082015250565b7f5472616e73666572206661696c65642e00000000000000000000000000000000600082015250565b610b1b81610984565b8114610b2657600080fd5b50565b610b3281610996565b8114610b3d57600080fd5b50565b610b49816109c2565b8114610b5457600080fd5b5056fea26469706673582212205cd31a9efc49d8302993b0d905d74b5448ec3058fdc833591728bfc42f97e81464736f6c63430008020033",
  "linkReferences": {},
  "deployedLinkReferences": {}
}